:100000000C9465010C948D010C948D010C948D0160
:100010000C948D010C948D010C948D010C948D0128
:100020000C948D010C948D010C946E060C943C057F
:100030000C948D010C948D010C948D010C948D0108
:100040000C948D010C948D010C948D010C948D01F8
:100050000C948D010C948D010C948D010C94A701CE
:100060000C948D010C948D010C948D010C948D01D8
:100070000C948D010C948D010C948D010C948D01C8
:100080000C948D010C948D010C948D010C948D01B8
:100090000C948D010C948D010C948D010C948D01A8
:1000A0000C948D010C948D010C948D01AA02AD026B
:1000B0009C02A002A602CE02CE02CE02B102B5027E
:1000C000B902BF02C302CE02C90200000002000949
:1000D0000F0000030401000C0000000000000000FD
:1000E00000000000000000000408020110408040F1
:1000F000102040804080080204018040201002014E
:10010000108010204040040404040403040502028B
:1001100002020403020202020606060606060404A0
:100120000202020400000000250028002B002E001F
:10013000310000000000240027002A002D003000BC
:1001400000C18081C1120100020200004041234130
:100150008000010102000112010002000000404184
:1001600023418000010102000141726475696E6FD4
:10017000204C4C430041726475696E6F2059756E56
:10018000000403090400000000000000002A2B28DE
:10019000000000000000000000000000000000005F
:1001A00000000000002C9EB4A0A1A2A434A6A7A524
:1001B000AE362D3738271E1F20212223242526B3B3
:1001C00033B62EB7B89F8485868788898A8B8C8DB5
:1001D0008E8F909192939495969798999A9B9C9DC7
:1001E0002F3130A3AD350405060708090A0B0C0DA5
:1001F0000E0F101112131415161718191A1B1C1DA7
:10020000AFB1B0B5000904020001030000000921EC
:10021000010100012265000705840340000105017A
:100220000902A1010901A10085010509190129039C
:10023000150025019503750181029501750581035E
:1002400005010930093109381581257F75089503A5
:100250008106C0C005010906A1018502050719E054
:1002600029E715002501750195088102950175089A
:100270008103950675081500256505071900296590
:100280008100C0080B000202020100090400000105
:1002900002020000052400100105240101010424CC
:1002A0000206052406000107058103100040090429
:1002B0000100020A000000070502024000000705D5
:1002C00083024000000018080B0911241FBECFEF65
:1002D000DAE0DEBFCDBF11E0A0E0B1E0E0E6F2E1A0
:1002E00002C005900D92A832B107D9F721E0A8E22B
:1002F000B1E001C01D92A739B207E1F712E0CAECE4
:10030000D2E004C02297FE010E942A09C63CD10710
:10031000C9F70E943F030C942E090C94000061E081
:100320008DE00C94CF0261E08DE00E94080368EE3E
:1003300073E080E090E00E94140260E08DE00E9493
:10034000080368EE73E080E090E00C9414021F92C2
:100350000F920FB60F9211242F933F938F939F9379
:10036000AF93BF938091290190912A01A0912B0115
:10037000B0912C013091280123E0230F2D3720F478
:100380000196A11DB11D05C026E8230F0296A11DEF
:10039000B11D209328018093290190932A01A093F5
:1003A0002B01B0932C0180912D0190912E01A091F1
:1003B0002F01B09130010196A11DB11D80932D0137
:1003C00090932E01A0932F01B0933001BF91AF9174
:1003D0009F918F913F912F910F900FBE0F901F9083
:1003E00018953FB7F89480912D0190912E01A0911E
:1003F0002F01B091300126B5A89B05C02F3F19F001
:100400000196A11DB11D3FBF6627782F892F9A2F16
:10041000620F711D811D911D42E0660F771F881FBD
:10042000991F4A95D1F70895CF92DF92EF92FF92EC
:10043000CF93DF936B017C010E94F101EB01C114AA
:10044000D104E104F10489F00E9425080E94F10121
:100450006C1B7D0B683E734090F381E0C81AD10895
:10046000E108F108C851DC4FEACFDF91CF91FF904E
:10047000EF90DF90CF900895789484B5826084BD2A
:1004800084B5816084BD85B5826085BD85B5816098
:1004900085BDEEE6F0E0808181608083E1E8F0E0F8
:1004A0001082808182608083808181608083E0E827
:1004B000F0E0808181608083E1E9F0E0808182600A
:1004C0008083808181608083E0E9F0E080818160C9
:1004D0008083E1ECF0E080818460808380818260B1
:1004E0008083808181608083E3ECF0E080818160A3
:1004F0008083E0ECF0E0808182608083E2ECF0E0D9
:10050000808181608083EAE7F0E08081846080837D
:100510008081826080838081816080838081806827
:100520008083089590E0FC013197EF30F105B0F53C
:10053000EA5AFF4F0C942809809180008F7703C0FE
:10054000809180008F7D809380000895809180004D
:10055000877FF9CF84B58F7702C084B58F7D84BD46
:100560000895809190008F7707C0809190008F7DD3
:1005700003C080919000877F8093900008958091C0
:10058000C0008F7703C08091C0008F7D8093C00032
:1005900008958091C200877F8093C2000895CF9311
:1005A000DF9390E0FC01E851FF4F2491FC01EA5FEA
:1005B000FE4F8491882349F190E0880F991FFC0138
:1005C000EE5CFE4FA591B4918C5D9E4FFC01C591F0
:1005D000D4919FB7611108C0F8948C912095822323
:1005E0008C93888182230AC0623051F4F8948C91F4
:1005F000322F309583238C938881822B888304C08B
:10060000F8948C91822B8C939FBFDF91CF910895AA
:100610000F931F93CF93DF931F92CDB7DEB7282F91
:1006200030E0F901E653FF4F8491F901E851FF4FA3
:100630001491F901EA5FFE4F04910023C9F0882369
:1006400021F069830E9492026981E02FF0E0EE0FB1
:10065000FF1FEC5DFE4FA591B4919FB7F8948C916C
:10066000611103C01095812301C0812B8C939FBF22
:100670000F90DF91CF911F910F91089508950E94DF
:100680003C020E943E0381E391E00E94C4060E9466
:100690008F01C0E0D0E00E9493012097E1F30E9417
:1006A0000000F9CF4091350150913601209133017E
:1006B0003091340142175307B4F49091E8009570DB
:1006C000E1F39091E80092FD19C08093F1008091D0
:1006D00035019091360101968F739927892B19F472
:1006E0008EEF8093E800809135019091360101965C
:1006F000909336018093350181E0089580E008955C
:10070000FF920F931F93CF93DF938C0188E10E9498
:10071000520383E00E945203C0E0D0E0F801EC0FE6
:10072000FD1F84910E945203F82E80E00E94520324
:100730008F2121F02196CB30D10581F7DF91CF9128
:100740001F910F91FF900895615030F02091F100BA
:10075000FC0120830196F8CF289884E68093380125
:1007600008952FB7FC012083F89467706093E90027
:100770000895CF93DF931F92CDB7DEB7682FCE01D8
:1007800001960E94B1038091F20099819FBF0F9062
:10079000DF91CF910895FF920F931F93CF93DF9333
:1007A00000D0CDB7DEB7F62E8A019091370199239C
:1007B00011F057FF03C08FEF9FEF2BC0682FCE01C2
:1007C00001967A830E94B1038091F20090E0A80123
:1007D0007A81801791070CF4AC01EF2DF72FF40EFE
:1007E00084E6FE1639F02898809338019091F10044
:1007F0009193F7CF4115510521F08091F2008823A4
:1008000021F089818FBFCA0104C08BE68093E80084
:10081000F8CF0F900F90DF91CF911F910F91FF9024
:100820000895CF93DF931F92CDB7DEB741E050E03C
:10083000BE016F5F7F4F0E94CB03019719F489813E
:1008400090E002C08FEF9FEF0F90DF91CF9108955E
:10085000CF93DF931F92CDB7DEB7682FCE010196FD
:100860000E94B1039091E800892F807295FF04C027
:100870009091F20080E4891B99819FBF0F90DF91D6
:10088000CF9108956F927F928F929F92AF92BF9275
:10089000CF92DF92EF92FF920F931F93CF93DF934C
:1008A0001F92CDB7DEB7782E7B01C42EB52E809176
:1008B0003701882369F0042F152F8AEFD82E872D52
:1008C0008072982E9AE3A92E872D8074882E11C0ED
:1008D0008FEF9FEF57C0872D0E942804682E81114B
:1008E0000CC0DA94A9F361E070E080E090E00E942F
:1008F00014020115110579F73BC0282F30E00217CB
:1009000013070CF4602E672DCE0101960E94B103EF
:100910008091E80085FF29C0262D30E0021B130BD3
:10092000992039F06A948FEF6816B1F01092F100B7
:10093000F9CFF701862D77FE07C0815058F09491CA
:100940009093F1003196F9CF815020F091919093DE
:10095000F100FACFE20EF31E8091E80085FF0FC090
:100960000115110511F481100AC089818FBFC1CF13
:100970005D9884E6809339018C2D9B2D03C0A09255
:10098000E800F3CF0F90DF91CF911F910F91FF906F
:10099000EF90DF90CF90BF90AF909F908F907F901F
:1009A0006F9008951092E90010923601109235016F
:1009B00090933401809333010895CF92DF92FF9298
:1009C0000F931F93CF93DF9300D0CDB7DEB7F82EF0
:1009D0008A016B0101151105B1F0F601F7FE02C0A5
:1009E000849101C0808149835A830E94520301503F
:1009F0001109FFEFCF1ADF0A49815A818111EACF2D
:100A00008FEF9FEF01C0CA010F900F90DF91CF9140
:100A10001F910F91FF90DF90CF9008951F93CF9378
:100A2000DF931F92CDB7DEB7162F2091E80022FF8B
:100A3000FCCF612F79830E94A4038BEF8093E800A1
:100A4000812F7981972F0F90DF91CF911F9108957A
:100A5000CF93DF931F92CDB7DEB71982CE010196F7
:100A60000E94AB08CE0101960E940007898190E0A8
:100A70000F90DF91CF9108951F920F920FB60F92B2
:100A80001124EF92FF920F931F932F933F934F9355
:100A90005F936F937F938F939F93AF93BF93EF93E6
:100AA000FF93CF93DF93CDB7DEB76297DEBFCDBFA5
:100AB0001092E9008091E80083FFE9C068E0CE0170
:100AC0000A960E94A40382EF8093E8009A8597FF1C
:100AD00005C08091E80080FFFCCF03C08EEF8093BB
:100AE000E800892F807609F0B7C08B85811105C099
:100AF0001092F1001092F100C3C0282F2D7F2130F9
:100B000009F4BEC0853049F48091E80080FFFCCF35
:100B10008C8580688093E300B3C0863009F074C090
:100B20002D85E888F988223071F580E090E02A8BE5
:100B30000E94D2040E94280599E08E010F5F1F4F8A
:100B4000F801392F11923A95E9F799832A892A8376
:100B500091E09E8390E898879AEF998720913501DC
:100B600030913601275F3F4F3C832B838D83C70134
:100B70000E94D20449E050E0B80180E00E94DD0408
:100B80000E9428057DC0C7012A8B0E94D2042A89B1
:100B9000223241F482E290E00E940B07892B09F097
:100BA0006FC072C0213069F488899989089711F45F
:100BB0002093320180913201811116C067E571E006
:100BC00018C0233009F060C08C85882381F0823002
:100BD00019F485E791E005C0813009F055C089E638
:100BE00091E00E9480034AC065E471E002C061E8C0
:100BF00071E06115710509F447C0FB01449150E0B3
:100C000080E80E94DD043CC0873009F43DC0883094
:100C100021F481E08093F10033C0893089F593702D
:100C200099F5E1E4F1E081E021E096E38093E900C9
:100C30002093EB0034913093EC009093ED008F5FA4
:100C40003196853099F78EE78093EA001092EA009A
:100C50008C858093370114C0888999890E94D204B9
:100C60008E85811105C0CE010A960E94B60806C085
:100C7000823051F4CE010A960E943307882321F076
:100C80008EEF8093E80003C081E28093EB006296D0
:100C90000FB6F894DEBF0FBECDBFDF91CF91FF91AD
:100CA000EF91BF91AF919F918F917F916F915F91E4
:100CB0004F913F912F911F910F91FF90EF900F90C7
:100CC0000FBE0F901F9018958093E9008091F2005D
:100CD000882319F08AE38093E80008951F920F9209
:100CE0000FB60F9211242F933F934F935F936F93FF
:100CF0007F938F939F93AF93BF93EF93FF938091D5
:100D0000E1001092E10083FF0FC01092E90091E032
:100D10009093EB001092EC0092E39093ED00109210
:100D2000370198E09093F00082FF1DC083E00E949D
:100D3000640680913901882339F08091390181500E
:100D400080933901882369F080913801882359F014
:100D500080913801815080933801811104C0289A14
:100D600002C05D9AF1CFFF91EF91BF91AF919F913A
:100D70008F917F916F915F914F913F912F910F9044
:100D80000FBE0F901F9018951092370181E080934D
:100D9000D70080EA8093D80082E189BD09B400FEC3
:100DA000FDCF61E070E080E090E00E94140280E9F5
:100DB0008093D8008CE08093E2001092E000559A76
:100DC000209A0895FF920F931F93CF93DF93EC0126
:100DD000F62EE881F9810480F581E02D09958C01DA
:100DE000E881F9810680F781E02D6F2DCE0109950C
:100DF000C8019927DF91CF911F910F91FF9008951E
:100E0000FC0120812F5F208349E150E065E072E022
:100E100080E80C94DD0445E650E06EE172E080E885
:100E20000C94DD04EF92FF920F931F93CF93DF9307
:100E30001F92CDB7DEB789838B017A0141E050E084
:100E4000BE016F5F7F4F84E00E944204A701B8019A
:100E500084E40E9442040F90DF91CF911F910F9183
:100E6000FF90EF900895FC0191818081813A31F4E7
:100E700081E0913091F0933089F411C0813271F4A6
:100E80009B3021F482818093010105C09A3031F4B6
:100E900082818093000181E00895089580E00895A3
:100EA00048E050E082E00C941207CF93DF93DC011E
:100EB000683818F0E8E7E60F25C0E62FF0E067FF96
:100EC00011C0E058F10981E090E001C0880FEA9577
:100ED000EAF714969C911497982B14969C93149768
:100EE000E0E010C0EB57FE4FE491EE2309F440C060
:100EF000E7FF08C014968C911497826014968C9327
:100F00001497EF7716968C9116978E1741F11796D6
:100F10008C9117978E1719F118968C9118978E1738
:100F2000F1F019968C9119978E17C9F01A968C9139
:100F30001A978E17A1F01B968C911B978E1779F03C
:100F400080E090E0ED01C80FD91F2E81211102C071
:100F5000EE8305C0019686309105A1F709C0BD0159
:100F60006C5F7F4FCD010E94500781E090E008C088
:100F700081E090E013969C938E93129780E090E02E
:100F8000DF91CF910895683818F0E8E7E60F25C0A3
:100F9000E62FF0E067FF12C0E058F10921E030E0F1
:100FA00001C0220FEA95EAF72095DC0114963C91E6
:100FB0001497322314963C93E0E00FC0EB57FE4F9A
:100FC000E491EE2329F1E7FF08C0DC0114962C918F
:100FD00014972D7F14962C93EF7720E030E0EE23CA
:100FE00051F0DC01A20FB31F16964C9116974E13C9
:100FF00002C016961C922F5F3F4F2630310579F7BD
:10100000BC016C5F7F4F0E94500781E090E0089523
:1010100080E090E00895FC01168217821086118608
:10102000128613861482BC016C5F7F4F0C945007AC
:101030001092460110923D0110923C018EE091E029
:1010400090933B0180933A0108950895CF92DF92E7
:10105000EF92FF920F931F93CF93DF936C017A016E
:10106000EB01E60EF71E00E010E0CE15DF0561F0A3
:101070006991D601ED91FC910190F081E02DC601BE
:101080000995080F191FF1CFC801DF91CF911F916A
:101090000F91FF90EF90DF90CF900895CF93DF9363
:1010A0001F92CDB7DEB76983DC01ED91FC91028020
:1010B000F381E02D41E050E0BE016F5F7F4F099565
:1010C0000F90DF91CF910895CF93DF93EC018C8542
:1010D0009D8597FF05C082E00E9411049D878C8743
:1010E0008C859D85DF91CF91089583E00C946406F3
:1010F000FC018485958597FD06C082E00E94B903B6
:1011000090E00196089582E00E94B90390E008956E
:10111000FC018485958597FD05C02FEF3FEF35874E
:101120002487089582E00C941104CF93DF93EC019F
:1011300080910901882331F083E00E94420418164F
:10114000190634F081E090E09B838A8380E090E090
:10115000DF91CF910895FC0120812E5F208342E42E
:1011600050E063E872E080E80C94DD04FC018181CA
:101170009081913A59F4813209F03CC047E050E047
:1011800062E071E080E00E94DD0443C0913291F59D
:10119000803239F467E070E082E091E00E940E0551
:1011A00006C0823209F035C08281809309018091A6
:1011B000020190910301A0910401B0910501803BCF
:1011C0009440A105B105C1F48091090180FD14C0CE
:1011D00087E797E790930108809300082BE088E168
:1011E00090E00FB6F894A895809360000FBE20930E
:1011F00060000FC080E0089588E10FB6F8948093F6
:101200006000109260000FBEA89510920108109225
:10121000000881E0089510924A011092490188EE79
:1012200093E0A0E0B0E080934B0190934C01A09339
:101230004D01B0934E018CE191E090934801809371
:1012400047018FEF9FEF90935401809353010895CE
:10125000EE0FFF1F0590F491E02D0994F894FFCF55
:10126000010100E100000000000000000000E206B3
:1012700026085507C3070B08000000004E08950814
:0812800078088808640875086D
:00000001FF
