:100000000C9403010C942B010C942B010C942B01E8
:100010000C942B010C942B010C942B010C942B01B0
:100020000C942B010C942B010C9426160C94B814F0
:100030000C942B010C942B010C942B010C942B0190
:100040000C942B010C942B010C942B010C942B0180
:100050000C942B010C942B010C942B010C94960AFC
:100060000C942B010C94B20D0C94E40D0C942B0108
:100070000C942B010C942B010C942B010C942B0150
:100080000C942B010C942B010C942B010C942B0140
:100090000C942B010C942B010C942B010C942B0130
:1000A0000C942B010C942B010C942B01B00BB30B73
:1000B000A20BA60BAC0BD40BD40BD40BB70BBB0B06
:1000C000BF0BC50BC90BD40BCF0B72756E2D6272B3
:1000D000696467650A000A000A00302E302E302E4F
:1000E00030003132372E302E302E31000000000229
:1000F00000090F0000030401000C000000000000D4
:1001000000000000000000000000000408020110D0
:100110004080401020408040800802040180402040
:100120001002011080102040402004040404040345
:100130000405020202020403020202020606060687
:100140000606040402020204040000000023002644
:100150000029002C002F0000000000250028002BA3
:10016000002E00310000000000240027002A002D8E
:1001700000300012010002EF0201404123418000E3
:10018000010102030112010002000000404123416D
:100190008000010102030141726475696E6F204C99
:1001A0004C430041726475696E6F2059756E00048E
:1001B000030904080B000202020100090400000107
:1001C000020200000524001001052401010104249D
:1001D00002060524060001070581031000400904FA
:1001E0000100020A000000070502024000000705A6
:1001F000830240000000F901400511081509140EA2
:100200009D0E9D17130211241FBECFEFDAE0DEBF53
:10021000CDBF11E0A0E0B1E0EEE5FAE302C0059049
:100220000D92A639B107D9F722E0A6E9B1E001C0E5
:100230001D92A23EB207E1F711E0C4E0D2E004C093
:100240002297FE010E94981AC63FD107C9F70E9463
:100250007C120C94221D0C9400000F931F93CF93DB
:10026000DF9300D000D000D0CDB7DEB78C014FE2D5
:10027000BC01CE0101960E94FA1065E271E0CE0148
:1002800001960E945C12882369F040919A01509176
:100290009B0160919C0170919D0122E030E0C801BA
:1002A0000E94BA1061E371E0CE0101960E945C12D7
:1002B000882369F0409196015091970160919801CF
:1002C0007091990122E030E0C8010E94BA10CE017D
:1002D00001960E94221126960FB6F894DEBF0FBE3B
:1002E000CDBFDF91CF911F910F910895CF93DF93F1
:1002F000CDB7DEB7C45AD1090FB6F894DEBF0FBE32
:10030000CDBF64EA71E0CE018D5A9F4F0E94C908AB
:100310004AE951E066E971E08EE991E00E94CA097C
:10032000892B09F051C0A3968FADA397882309F4B8
:1003300046C067968EAD9FAD67979C838B836B9607
:100340008CAD9DADAEADBFAD6B978D839E83AF83FE
:10035000B8876F968CAD9DADAEADBFAD6F978987F9
:100360009A87AB87BC878DE391E09A838983A196B6
:100370008EAD9FADA1979E878D87A2968FADA297D8
:100380008F8781E0888BA4968FADA497898BA596E3
:100390008FADA5978A8B80E4E3E5F0E0EC0FFD1FBD
:1003A0007296DE01539601900D928A95E1F7CE0187
:1003B00001960E942D01CE0101960E947207CE0186
:1003C0008D5A9F4F0E941E0668EE73E080E090E019
:1003D0000E940F0BCE018D5A9F4F0E947207CC5581
:1003E000DF4F0FB6F894DEBF0FBECDBFDF91CF91C8
:1003F00008950F9300E020E040E060E08EEA91E095
:100400000E94910E44EB51E063EB75E184EA91E0C8
:100410000E94BB0860910601709107018EE991E08E
:100420000F910C9420098EE991E00C94C90961E0C8
:100430008DE00E94D50B60E08DE00E940E0C26E05E
:1004400040E950ED63E070E08091BD019091BE0104
:100450000E94500D84EB91E00E94390461E08DE030
:100460000E940E0C81E08093AD0184EA91E00C942F
:100470001C08FC01238134812627022E2295207F2F
:100480002025032E322F22952F7002262695322703
:100490002327220F220F220F2025FC0134832383E0
:1004A0000895CF93DF93EC018D819E81DC01ED9166
:1004B000FC916C810190F081E02D09958D819E81E8
:1004C000DC01ED91FC910190F081E02D6B81DF91D9
:1004D000CF9109948F929F92AF92BF92CF92DF9269
:1004E000EF92FF92CF93DF93EC016B010E94E00A41
:1004F0004B015C01E12CF12C8D819E81DC01ED91A1
:10050000FC910680F781E02D099597FF0DC00E94B0
:10051000E00A681979098A099B096C157D058E0521
:100520009F0550F38FEF9FEFDF91CF91FF90EF90FA
:10053000DF90CF90BF90AF909F908F900895CF9312
:10054000DF93EC018D819E81DC01ED91FC910480B3
:10055000F581E02D09951816190654F48D819E81B8
:10056000DC01ED91FC910680F781E02D0995EACF41
:10057000DF91CF9108952F923F924F925F926F92A9
:100580007F928F929F92AF92BF92CF92DF92EF9223
:10059000FF920F931F93CF93DF93CDB7DEB72D97C5
:1005A0000FB6F894DEBF0FBECDBF3C011B013C83EC
:1005B0002B83BF82AE825801AC0CBD1CA40EB51EAD
:1005C000BD824B2C512CCA01860F971F99878887B3
:1005D000D901A00FB11FBB87AA87F601EE0DFF1D41
:1005E000FD87EC87D30118968C91581608F026C128
:1005F000EFEFFFEFD3011496FC93EE93139715964C
:100600008D919C911697DC01ED91FC910190F08108
:10061000E02D6FEF09956FEFC3010E943902F301DE
:1006200085819681DC01ED91FC910190F081E02DB6
:10063000D3016C910995F3016081C3010E943902D5
:10064000D30115968D919C911697DC01ED91FC914B
:100650000190F081E02D6D810995642DC3010E9408
:100660003902F30185819681DC01ED91FC910190C5
:10067000F081E02D6A2D09956A2DC3010E9439028F
:10068000610188859985C816D906A1F0F301858195
:1006900096818601DC01ED91FC910190F081E02DC5
:1006A000D6016D916D010995F8016081C3010E9429
:1006B0003902E7CFCB80DC808A859B85C816D906B6
:1006C000B1F0D30115968D919C9116978601DC01AE
:1006D000ED91FC910190F081E02DD6016D916D01BD
:1006E0000995F8016081C3010E943902E5CF8701B5
:1006F0008C859D8508171907B1F0D30115968D914A
:100700009C9116976801DC01ED91FC910190F081BC
:10071000E02DD8016D918D010995F6016081C3012D
:100720000E943902E5CFC3010E94510264E670E0E5
:10073000C3010E946A028F3F910509F074C0EFEF78
:10074000FFEFD3011496FC93EE9313976FEFC30161
:100750000E94390265E070E0C3010E946A02D30181
:100760006C91262F30E08217930709F05CC0C3011B
:100770000E9439026AE070E0C3010E946A028C01A3
:1007800097FD51C0682FC3010E9439026AE070E0F2
:10079000C3010E946A026C0197FD45C0682FC30126
:1007A0000E9439020A83198209811A810C0D1D1DCC
:1007B000C12CD12C65E070E0C301C016D106A1F0B8
:1007C000C814D90489F00E946A0297FD09C0EE811D
:1007D000FF81EC0DFD1D8083682FC3010E9439024B
:1007E000BFEFCB1ADB0AE6CF0E946A026C0197FDCD
:1007F0001AC065E070E0C3010E946A0297FD13C051
:10080000DC2CCC24C80ED91EF301838194818C1575
:100810009D0549F480818F5F8083C8018016910611
:1008200078F4C4010DC0539464E670E080E090E079
:100830000E940F0BC3010E949F02D4CE8FEF9FEF47
:100840002D960FB6F894DEBF0FBECDBFDF91CF91CE
:100850001F910F91FF90EF90DF90CF90BF90AF90DE
:100860009F908F907F906F905F904F903F902F90D0
:1008700008953F924F925F926F927F928F929F92D4
:10088000AF92BF92CF92DF92EF92FF920F931F939E
:10089000CF93DF93CDB7DEB72E970FB6F894DEBFB8
:1008A0000FBECDBF3C01DC0117968C9117978111CB
:1008B000CFC081E017968C93C3010E949F0268EE1F
:1008C00073E080E090E00E940F0BF3018581968138
:1008D000DC01ED91FC910480F581E02D099518165D
:1008E000190654F355E0552E4424439462E3362E02
:1008F000EBE1F1E0DE011696852D01900D928A95CF
:10090000E1F7F3014086812C912CA12CB12CC12C54
:10091000D12CE12CF12C00E010E020E030E045E0AB
:1009200050E0BE016A5F7F4FC3010E94BB0263E0DB
:10093000D30115968D919C9116970E940D0F6AEF29
:1009400070E080E090E00E940F0B68ED70E0F30132
:10095000858196810E94EA0E6AEF70E080E090E067
:100960000E940F0B66ED70E0D30115968D919C915E
:1009700016970E94EA0E64EF71E080E090E00E941A
:100980000F0B6AEC70E0F301858196810E94EA0EFC
:1009900064EF71E080E090E00E940F0BC3010E94C1
:1009A0009F02E0E2F1E0DE011196852D01900D92AB
:1009B0008A95E1F7D30118963C9244E0842E912C5D
:1009C000FE013B965F0120E030E045E050E0BE01D3
:1009D0006F5F7F4FC3010E94BB028F3FFFEF9F07F6
:1009E00039F468EE73E080E090E00E940F0B80CF56
:1009F0002B852111FFCF049711F52C8530E0205372
:100A0000310944E6429FC001439F900D11242D857A
:100A100030E0205331096AE0629FA001639F500DCE
:100A20001124840F951F2E8530E020533109820F49
:100A3000931FD30112969C938E93119705C084E661
:100A400090E0F3019283818382E3D30118968C9323
:100A50002E960FB6F894DEBF0FBECDBFDF91CF91BB
:100A60001F910F91FF90EF90DF90CF90BF90AF90CC
:100A70009F908F907F906F905F904F903F900895E0
:100A80001092B40184ED91E09093BA018093B90182
:100A90001092BB011092BC019093BE018093BD01E6
:100AA0000895FC01878508950895EF92FF920F93B2
:100AB0001F93CF93DF93CDB7DEB728970FB6F89487
:100AC000DEBF0FBECDBF7C018B0167E771E0CE01B9
:100AD00001964F8358870E94901162E170E0CE0129
:100AE00001960E945311D80112966C91CE01019685
:100AF0000E9430126EE2CE0101960E941D12F80192
:100B00006381CE0101960E9430126EE2CE01019601
:100B10000E941D12D80114966C91CE0101960E947C
:100B200030126EE2CE0101960E941D12F80165811D
:100B3000CE0101960E943012D701ED91FC9169819E
:100B40007A810684F785E02D4F815885C701099584
:100B50008C01CE0101960E942211C80128960FB681
:100B6000F894DEBF0FBECDBFDF91CF911F910F91E3
:100B7000FF90EF9008956F927F928F929F92AF9225
:100B8000BF92CF92DF92EF92FF920F931F93CF937A
:100B9000DF9300D0CDB7DEB7FC019B013A0187851A
:100BA0008823C1F08CE6898386858A83812C912CE9
:100BB000A12CB12CC12CD12CE12CF12C8A0142E0CA
:100BC00050E0BE016F5F7F4F848595850E94BB0218
:100BD000C30102C080E090E00F900F90DF91CF91B1
:100BE0001F910F91FF90EF90DF90CF90BF90AF904B
:100BF0009F908F907F906F9008958F929F92AF9269
:100C0000BF92CF92DF92EF92FF920F931F93480112
:100C10005901C12CD12CE12CF12C00E010E020E096
:100C200030E00E94BB021F910F91FF90EF90DF9088
:100C3000CF90BF90AF909F908F900895EF92FF92CA
:100C40000F931F93CF93DF9300D0CDB7DEB77C0116
:100C5000FC018785882389F08AE6898386858A83D3
:100C600000E010E020E030E042E050E0BE016F5FC5
:100C70007F4F848595850E94FD05F7011786108AB0
:100C8000118A0F900F90DF91CF911F910F91FF90DC
:100C9000EF900895EF92FF920F931F93CF93DF93FE
:100CA00000D01F92CDB7DEB77C01DC011F968C917E
:100CB0001F97882301F1ED91FC910480F581E02DCF
:100CC000C7010995892BC9F48CE48983F7018685CE
:100CD0008A8301E010E09E012D5F3F4F42E050E02B
:100CE000BE016F5F7F4F848595850E94FD0581E081
:100CF0009B81913019F080E001C081E00F900F904E
:100D00000F90DF91CF911F910F91FF90EF90089579
:100D10006F927F928F929F92AF92BF92CF92DF920B
:100D2000EF92FF920F931F93CF93DF93CDB7DEB770
:100D300027970FB6F894DEBF0FBECDBF3C019B01D5
:100D400083E489835A834B83DB010D900020E9F70C
:100D50008D0101501109061B170B88248394912CD7
:100D6000FE0137965F01C12CD12CE12CF12C43E020
:100D700050E0BE016F5F7F4FD3011C968D919C9117
:100D80001D970E94BB02892BC1F18F81F3018687D9
:100D900093E69C838D8301E010E09E012A5F3F4F24
:100DA00042E050E0BE016C5F7F4FD3011C968D91F5
:100DB0009C911D970E94FD058E81882339F061E08A
:100DC00070E080E090E00E940F0BE5CF81E0F3013E
:100DD00087870190F081E02D0488F589E02DC3011B
:100DE000099581110DC0D301ED91FC910288F38921
:100DF000E02DC3010995F301168680E090E002C062
:100E000081E090E027960FB6F894DEBF0FBECDBF0D
:100E1000DF91CF911F910F91FF90EF90DF90CF90D6
:100E2000BF90AF909F908F907F906F9008950F9399
:100E30001F93CF93DF9300D01F92CDB7DEB7FC0195
:100E400087858823A9F08CE6898386858A836B83CE
:100E500000E010E020E030E043E050E0BE016F5FD2
:100E60007F4F848595850E94FD0581E090E002C05A
:100E700080E090E00F900F900F90DF91CF911F9145
:100E80000F9108950F931F93FC011382128208EEB5
:100E900013E020E030E004831583268337838DE35D
:100EA00091E09183808355874487668781E08787B7
:100EB000108A1F910F910895FC01CB0113821282B9
:100EC00048EE53E060E070E04483558366837783A7
:100ED0002DE331E03183208395878487168617863A
:100EE000108A08952DE331E0FC01318320830895B9
:100EF000EF92FF920F931F93CF93DF9300D01F9237
:100F0000CDB7DEB77C01FC018089811117C0118A41
:100F10008BE4898386858A8380E48B8397012E5EA8
:100F20003F4F00E410E043E050E0BE016F5F7F4FB1
:100F3000848595850E94FD05F701808B0F900F90A9
:100F40000F90DF91CF911F910F91FF90EF90089537
:100F5000CF93DF93EC010E947807888990E0DF91BE
:100F6000CF910895CF93DF93EC010E947807888991
:100F7000882359F08150888B898991E0980F998B4B
:100F8000C80FD11D8A8990E002C08FEF9FEFDF91DB
:100F9000CF910895CF92DF92EF92FF920F931F931C
:100FA000CF93DF93EC016A018B01E12CF12C88894E
:100FB000811106C0CE010E94780788898823A1F09C
:100FC0008FEFE81AF80A898991E0980F998BFE0152
:100FD000E80FF11D8289F80181938F018889815082
:100FE000888BEC14FD0418F3C701DF91CF911F919A
:100FF0000F91FF90EF90DF90CF900895CF93DF9304
:10100000EC010E9478078889882331F08989C80F0C
:10101000D11D8A8990E002C08FEF9FEFDF91CF91C1
:1010200008950F9300E020E040E060E08FEB91E056
:101030000E94910E0F9108956F927F928F929F92CE
:10104000AF92BF92CF92DF92EF92FF920F931F93D6
:10105000CF93DF93CDB7DEB72A970FB6F894DEBFF4
:101060000FBECDBF3C018EE48F83F3018681978153
:101070009887898762EE70E0CE0101960E94E811A0
:10108000F3018185811106C06AED70E0CE01019601
:101090000E94C7110D811E8129813A818824839481
:1010A000912CCE010A965C01C12CD12CE12CF12CA3
:1010B00043E050E0BE01695F7F4FF3018481958179
:1010C0000E94BB0281E09A85913009F080E0F30133
:1010D0008087CE0101960E9422112A960FB6F894BD
:1010E000DEBF0FBECDBFDF91CF911F910F91FF905B
:1010F000EF90DF90CF90BF90AF909F908F907F90B8
:101100006F9008958F929F92AF92BF92CF92DF928D
:10111000EF92FF920F931F93CF93DF9300D0CDB741
:10112000DEB722E629836A83812C912CA12CB12C75
:10113000C12CD12CE12CF12C00E010E020E030E0BB
:1011400042E050E0BE016F5F7F4FFC0184819581DA
:101150000E94BB0281E090E00F900F90DF91CF9151
:101160001F910F91FF90EF90DF90CF90BF90AF90C5
:101170009F908F900895FC011382128289E591E07F
:101180009183808355834483778366831086118699
:1011900008956F927F928F929F92AF92BF92CF925B
:1011A000DF92EF92FF920F931F93CF93DF9300D0C4
:1011B000CDB7DEB73C01FB018BE68A83882483949C
:1011C000912CCE0101965C01C12CD12CE12CF12C8B
:1011D00000E010E020E030E041E050E0BE016E5F52
:1011E0007F4F848195810E94BB02892B31F464EB8F
:1011F00071E0C3010E945C0706C044EB51E06981C5
:10120000C3010E944207C3010F900F90DF91CF915D
:101210001F910F91FF90EF90DF90CF90BF90AF9014
:101220009F908F907F906F9008950F9300E020E043
:1012300040E060E085EC91E00E94910E0F910895EE
:10124000CF93DF93EC01862F688379831A821B8208
:101250001C821D8260E00E94D50B61E08881DF91D5
:10126000CF910C940E0CAF92BF92CF92DF92EF927F
:10127000FF920F931F93CF93DF9300D000D0CDB791
:10128000DEB78C01A62E29833A834B835C830E94B0
:10129000EC0A6B017C0129813A814B815C81260F2C
:1012A000371F481F591FB12CF801808129833A83C9
:1012B0004B835C830E94440C29813A814B815C8181
:1012C0008A159B0599F029833A834B835C830E949E
:1012D000EC0A29813A814B815C8126173707480740
:1012E000590710F76FEF7FEFCB0106C00E94EC0AA1
:1012F0006C197D098E099F090F900F900F900F9028
:10130000DF91CF911F910F91FF90EF90DF90CF90E1
:10131000BF90AF9008950F931F93CF93DF93EC018D
:10132000062F10E088810E94440C80179107D1F7A6
:10133000DF91CF911F910F910895FF920F931F930B
:10134000CF93DF938C01F12CC7E0D0E061E0C801BE
:101350000E948B098EE190E00E94370BF80180819A
:101360000E94440C8130910559F49C010C2E01C05F
:10137000220F0A94EAF7F22A60E0C8010E948B0962
:10138000219720F78F2DDF91CF911F910F91FF9023
:10139000089508957F928F929F92AF92BF92CF92BD
:1013A000DF92EF92FF920F931F93CF93DF93EC01A5
:1013B0008B017A010E94E00A8A809B80AC80BD800C
:1013C000681979098A099B09683E7340810591056E
:1013D00038F489288A288B2819F08FEF9FEF98C05E
:1013E00061E088810E94D50B60E088810E940E0C2C
:1013F00062E170E080E090E00E940F0B61E0888184
:101400000E940E0C60E088810E94D50B28E230E03B
:1014100040E050E060E0CE010E9433092AE530E070
:1014200040E050E061E0CE010E9433092AE530E05F
:1014300040E050E060E0CE010E943309CE010E94FE
:101440009D09B82ECE010E949D09782ECE010E94E2
:101450009D09C82ECE010E949D09D82ECE010E9462
:101460009D09272D30E02B0D311D2C0D311D2D0D2B
:10147000311D482F50E02417350709F047C06B2D68
:1014800070E080E090E00E9457194B015C01672DED
:1014900070E080E090E00E94571920E030E048ECD6
:1014A00052E40E94BE189B01AC01C501B4010E9428
:1014B0005618F80160837183828393836C2D70E0EA
:1014C00080E090E00E9457194B015C016D2D70E0A7
:1014D00080E090E00E94571920E030E048EC52E4B0
:1014E0000E94BE189B01AC01C501B4010E945618B0
:1014F000F70160837183828393830E94E00A6A8389
:101500007B838C839D8380E090E002C084E090E048
:10151000DF91CF911F910F91FF90EF90DF90CF90CF
:10152000BF90AF909F908F907F9008951F920F92E1
:101530000FB60F9211242F933F938F939F93AF93E6
:10154000BF938091CC019091CD01A091CE01B0913B
:10155000CF013091CB0123E0230F2D3720F40196EA
:10156000A11DB11D05C026E8230F0296A11DB11DC6
:101570002093CB018093CC019093CD01A093CE0119
:10158000B093CF018091D0019091D101A091D2016F
:10159000B091D3010196A11DB11D8093D00190930C
:1015A000D101A093D201B093D301BF91AF919F918C
:1015B0008F913F912F910F900FBE0F901F90189514
:1015C0002FB7F8946091CC017091CD018091CE013C
:1015D0009091CF012FBF08953FB7F8948091D0012B
:1015E0009091D101A091D201B091D30126B5A89BD1
:1015F00005C02F3F19F00196A11DB11D3FBF662701
:10160000782F892F9A2F620F711D811D911D42E045
:10161000660F771F881F991F4A95D1F70895CF92BB
:10162000DF92EF92FF92CF93DF936B017C010E94D8
:10163000EC0AEB01C114D104E104F10489F00E9429
:101640008F120E94EC0A6C1B7D0B683E734090F376
:1016500081E0C81AD108E108F108C851DC4FEACF8F
:10166000DF91CF91FF90EF90DF90CF90089582307F
:10167000910538F0880F991F880F991F05970197DA
:10168000F1F70895789484B5826084BD84B5816053
:1016900084BD85B5826085BD85B5816085BDEEE67A
:1016A000F0E0808181608083E1E8F0E01082808159
:1016B00082608083808181608083E0E8F0E08081C7
:1016C00081608083E1E9F0E08081826080838081B5
:1016D00081608083E0E9F0E0808181608083E1ECDB
:1016E000F0E080818460808380818260808380815B
:1016F00081608083E3ECF0E0808181608083E0ECB6
:10170000F0E0808182608083E2ECF0E080818160A3
:101710008083EAE7F0E0808184608083808182605A
:101720008083808181608083808180688083089548
:1017300090E0FC013197EF30F105B0F5EA5AFF4F28
:101740000C94961A809180008F7703C0809180005E
:101750008F7D80938000089580918000877FF9CFEE
:1017600084B58F7702C084B58F7D84BD0895809144
:1017700090008F7707C0809190008F7D03C080918B
:101780009000877F8093900008958091C0008F77AC
:1017900003C08091C0008F7D8093C0000895809128
:1017A000C200877F8093C2000895CF93DF9390E0BB
:1017B000FC01E55FFE4F2491FC01E65DFE4F849144
:1017C000882349F190E0880F991FFC01EB59FE4FE7
:1017D000A591B491895A9E4FFC01C591D4919FB7B0
:1017E000611108C0F8948C91209582238C93888194
:1017F00082230AC0623051F4F8948C91322F3095D4
:1018000083238C938881822B888304C0F8948C91E5
:10181000822B8C939FBFDF91CF9108950F931F93DD
:10182000CF93DF931F92CDB7DEB7282F30E0F901B9
:10183000E451FF4F8491F901E55FFE4F1491F901E6
:10184000E65DFE4F04910023C9F0882321F06983EF
:101850000E94980B6981E02FF0E0EE0FFF1FE95A1C
:10186000FE4FA591B4919FB7F8948C91611103C07C
:101870001095812301C0812B8C939FBF0F90DF9126
:10188000CF911F910F910895CF93DF93282F30E0D0
:10189000F901E451FF4F8491F901E55FFE4FD491C6
:1018A000F901E65DFE4FC491CC2391F081110E94B5
:1018B000980BEC2FF0E0EE0FFF1FE75BFE4FA591BA
:1018C000B4912C912D2381E090E021F480E002C0BE
:1018D00080E090E0DF91CF910895FC01818D228D11
:1018E00090E0805C9F4F821B91098F739927089528
:1018F000FC01918D828D981731F0828DE80FF11DDA
:10190000858D90E008958FEF9FEF0895FC01918DF4
:10191000828D981761F0828DDF01A80FB11D5D9651
:101920008C91928D9F5F9F73928F90E008958FEFBF
:101930009FEF08958AE09EE0892B49F080E090E0D7
:10194000892B29F00E940A0E81110C940000089541
:10195000FC01848DDF01A80FB11DA35ABF4F2C914C
:10196000848D90E001968F739927848FA689B7891B
:101970002C93A089B1898C9180648C93938D848DF4
:10198000981306C00288F389E02D80818F7D8083C3
:101990000895CF93DF93EC01888D8823C9F0EA89FD
:1019A000FB89808185FD05C0A889B9898C9186FD58
:1019B0000FC00FB607FCF5CF808185FFF2CFA88955
:1019C000B9898C9185FFEDCFCE010E94A80CE7CF9D
:1019D000DF91CF910895CF92DF92FF920F931F93E3
:1019E000CF93DF931F92CDB7DEB76C0181E0D601B4
:1019F00058968C9358975B969C915B975C968C91CC
:101A00005C97981307C05096ED91FC915197808197
:101A100085FD2EC0F601038D10E00F5F1F4F0F7381
:101A20001127F02EF601848DF81211C00FB607FCB5
:101A3000F9CFD6015096ED91FC915197808185FFA9
:101A4000F1CFC60169830E94A80C6981EBCF838D19
:101A5000E80FF11DE35AFF4F6083D6015B960C93AC
:101A60005B975296ED91FC915397808180620CC0F8
:101A7000D6015696ED91FC91579760835096ED9163
:101A8000FC91519780818064808381E090E00F9089
:101A9000DF91CF911F910F91FF90DF90CF9008952C
:101AA000BF92CF92DF92EF92FF92CF93DF93EC0140
:101AB0006A017B01B22EE889F98982E080834115B1
:101AC00081EE580761057105A1F060E079E08DE3D2
:101AD00090E0A70196010E94741A21503109410932
:101AE00051095695479537952795211580E1380777
:101AF00098F0E889F989108260E874E88EE190E056
:101B0000A70196010E94741A215031094109510917
:101B10005695479537952795EC85FD853083EE855D
:101B2000FF852083188EEC89FD89B082EA89FB89C4
:101B3000808180618083EA89FB89808188608083DD
:101B4000EA89FB89808180688083EA89FB898081BA
:101B50008F7D8083DF91CF91FF90EF90DF90CF90CA
:101B6000BF9008951F920F920FB60F9211242F93DA
:101B70008F939F93EF93FF93E091E401F091E50140
:101B80008081E091EA01F091EB0182FD12C0908129
:101B90008091ED018F5F8F732091EE01821751F0DC
:101BA000E091ED01F0E0EC52FE4F958F8093ED0156
:101BB00001C08081FF91EF919F918F912F910F90A4
:101BC0000FBE0F901F9018951F920F920FB60F9295
:101BD00011242F933F934F935F936F937F938F9332
:101BE0009F93AF93BF93EF93FF9384ED91E00E9497
:101BF000A80CFF91EF91BF91AF919F918F917F9131
:101C00006F915F914F913F912F910F900FBE0F9069
:101C10001F90189584ED91E00E946D0C21E0892BB6
:101C200009F420E0822F08951092D7011092D60176
:101C300088EE93E0A0E0B0E08093D8019093D901C2
:101C4000A093DA01B093DB0183E691E09093D50194
:101C50008093D4018DEC90E09093E1018093E001BA
:101C60008CEC90E09093E3018093E20188EC90E0AB
:101C70009093E5018093E40189EC90E09093E70173
:101C80008093E6018AEC90E09093E9018093E8016B
:101C90008EEC90E09093EB018093EA011092ED01BD
:101CA0001092EE011092EF011092F0010895AF92A0
:101CB000BF92CF92DF92EF92FF920F931F93CF9339
:101CC000DF936C017B01C0E0D0E000E010E0F601A2
:101CD000EC0FFD1F4AE050E06281C7010E94C80F6F
:101CE0005C016EE2C7010E940D0F8A0D9B1D080F5B
:101CF000191F2196C330D10551F74AE050E0F60193
:101D00006581C7010E94C80F800F911FDF91CF919D
:101D10001F910F91FF90EF90DF90CF90BF90AF9009
:101D200008950F93FC0183E791E0918380836283A0
:101D30004383248305830F91089583E791E0909373
:101D400072028093710210927302109274021092C8
:101D50007502109276020895CF92DF92EF92FF9271
:101D60000F931F93CF93DF937C016A01EB0100E097
:101D700010E00C151D0571F06991D701ED91FC91F2
:101D80000190F081E02DC7010995892B19F00F5FB3
:101D90001F4FEFCFC801DF91CF911F910F91FF909F
:101DA000EF90DF90CF9008956115710581F0DB0110
:101DB0000D900020E9F7AD0141505109461B570B2A
:101DC000DC01ED91FC910280F381E02D099480E02B
:101DD00090E00895EF92FF920F931F93CF93DF93BC
:101DE0008C017B01C0E0D0E0F701EC0FFD1F649196
:101DF000662359F0F801A081B181ED91FC91C801F1
:101E00000995892B11F02196EFCFCE01DF91CF916B
:101E10001F910F91FF90EF900895DC01ED91FC91DF
:101E20000190F081E02D099465E771E00C94D40EE7
:101E30008F929F92AF92BF92CF92DF92EF92FF92DA
:101E40000F931F93CF93DF93CDB7DEB7A1970FB654
:101E5000F894DEBF0FBECDBF7C01C42EE52FCB01B1
:101E6000D22E19A221E02D1510F02AE0D22E8E01DB
:101E70000F5D1F4F8D2C912CA12CB12C6C2D7E2F22
:101E8000A50194010E94741A8C2DD29E80191124F0
:101E9000015011098A3014F4805D01C0895CF80199
:101EA0008083211531054105510521F0C22EE32F14
:101EB000CA01E4CFB801C7010E94D40EA1960FB6A3
:101EC000F894DEBF0FBECDBFDF91CF911F910F9170
:101ED000FF90EF90DF90CF90BF90AF909F908F904A
:101EE0000895CF92DF92EF92FF920F931F93CF93BB
:101EF000DF93EC016A017B012115310579F4E8815A
:101F0000F9810190F081E02D642FDF91CF911F9135
:101F10000F91FF90EF90DF90CF9009942A30310518
:101F2000E9F477FF1AC06DE20E940D0F8C0144277F
:101F30005527BA014C195D096E097F092AE0CE01C7
:101F40000E94180F800F911FDF91CF911F910F9169
:101F5000FF90EF90DF90CF9008952AE0B701A6019F
:101F6000CE01DF91CF911F910F91FF90EF90DF9005
:101F7000CF900C94180F2115310541F4DC01ED913F
:101F8000FC910190F081E02D642F09940C94180FBE
:101F90009A01462F50E060E070E00C94BB0F4F9226
:101FA0005F926F927F928F929F92AF92BF92CF92E9
:101FB000DF92EF92FF920F931F93CF93DF93EC0189
:101FC0006A017B01B22E9A01AB01C701B6010E94E2
:101FD000701A882319F068E771E027C026013701DD
:101FE000E89477F82FEF3FEF4FE75FE7C301B201C7
:101FF0000E94701A81110DC02FEF3FEF4FE75FE78E
:10200000C301B2010E94BA1818161CF46CE771E003
:102010000CC02FEF3FEF4FE75FE4C701B6010E940E
:10202000091A1816ACF460E871E0CE01DF91CF9187
:102030001F910F91FF90EF90DF90CF90BF90AF90E6
:102040009F908F907F906F905F904F900C94D40EE4
:102050002FEF3FEF4FE75FECC701B6010E94BA18C0
:1020600087FDE1CF20E030E0A901C701B6010E9461
:10207000BA1887FF0AC06DE2CE010E940D0F8C01D5
:10208000F7FAF094F7F8F09402C000E010E0A12C09
:1020900060E070E080E09FE3AB1441F020E030E0CE
:1020A00040E251E40E94BE18A394F6CF9B01AC011C
:1020B000C701B6010E9456186B017C010E942B19C2
:1020C0002B013C010E9457199B01AC01C701B601CD
:1020D0000E9455186B017C012AE0B301A201CE01D8
:1020E0000E94180F080F191FBB2039F064E871E037
:1020F000CE010E94D40E080F191F7B2C772041F1CE
:1021000020E030E040E251E4C701B6010E940D1A20
:102110006B017C010E9426194B01AA2497FCA09414
:10212000BA2C2AE030E0B501A401CE010E94710F63
:10213000080F191FC501B4010E9459199B01AC0178
:10214000C701B6010E9455186B017C017A94D6CF65
:10215000C801DF91CF911F910F91FF90EF90DF9019
:10216000CF90BF90AF909F908F907F906F905F9037
:102170004F9008950F931F93CF93DF93EC010E942C
:10218000CF0F8C01CE010E94140F800F911FDF91A1
:10219000CF911F910F9108950F931F93CF93DF93CA
:1021A000EC010E94E00A688779878A879B87E8812B
:1021B000F9810680F781E02DCE01099597FF15C0C2
:1021C0000E94E00A088519852A853B85601B710BF2
:1021D000820B930B0C811D812E813F81601771074B
:1021E0008207930720F38FEF9FEFDF91CF911F912D
:1021F0000F910895EF92FF920F931F93CF93DF9368
:10220000EC018B01E42E67E771E00E949011C80198
:102210000E94CC10FF24E7FCF09497FD0BC08E15B4
:102220009F0541F0682FCE010E941D12C8010E9437
:10223000CC10F3CFCE01DF91CF911F910F91FF9082
:10224000EF900895FC01808191810C94341BCF9311
:10225000DF93EC0188819981009711F00E94341B73
:10226000198218821D821C821B821A82DF91CF91F3
:1022700008950F931F93CF93DF93EC018B016F5F52
:102280007F4F888199810E94C31B009731F0998309
:1022900088831B830A8381E001C080E0DF91CF91B6
:1022A0001F910F910895CF93DF93EC01888199815D
:1022B000892B29F08A819B818617970760F4CE01CC
:1022C0000E943911882341F08C819D81892B19F45A
:1022D000E881F981108281E0DF91CF910895EF923A
:1022E000FF920F931F93CF93DF93EC017B018A0141
:1022F000BA010E945311811104C0CE010E9427111E
:1023000007C01D830C83B701888199810E94AF1C8F
:10231000CE01DF91CF911F910F91FF90EF90089523
:10232000FC011182108213821282158214826115BF
:10233000710559F0FB0101900020E9F7AF01415010
:102340005109461B570B0C946F110895EF92FF92A1
:102350000F931F93CF93DF93EC017B018A01BA01A6
:102360000E945311811104C0CE010E94271107C0A1
:102370001D830C83B701888199810E948D1CCE0139
:10238000DF91CF911F910F91FF90EF9008950F93E0
:102390001F93CF93DF9300D0CDB7DEB78C016115CB
:1023A000710561F0CB0169837A830E94941CAC01B2
:1023B00069817A81C8010E94A61102C00E9427117A
:1023C000C8010F900F90DF91CF911F910F91089549
:1023D000FC011182108213821282158214820C94E5
:1023E000C711EF92FF920F931F93CF93DF93EC01EE
:1023F0007B010C811D816115710511F480E016C00F
:102400004115510591F0040F151FB8010E94531199
:102410008823A1F3288139818C819D81B701820FA6
:10242000931F0E94AF1C1D830C8381E0DF91CF912D
:102430001F910F91FF90EF900895CF93DF9300D0FD
:10244000CDB7DEB769831A8241E050E0BE016F5F0D
:102450007F4F0E94F1110F900F90DF91CF9108955F
:10246000EF92FF920F931F93CF93DF9300D000D092
:10247000CDB7DEB77C01862F4AE08E010F5F1F4F7C
:10248000B80190E00E94B61CF80101900020E9F725
:10249000AF0141505109401B510BB801C7010E94C7
:1024A000F1110F900F900F900F90DF91CF911F912E
:1024B0000F91FF90EF900895FC0124813581232B2B
:1024C00031F421E061157105A1F0FB0108C0FC01A8
:1024D000808191816115710531F421E0FC018081D9
:1024E000882339F005C00E94A61C21E0892B09F041
:1024F00020E0822F089508950E94420B0E947B12D3
:1025000087E792E00E94A9160E941702CAE9DCE060
:102510000E9476012097E1F30E949A0CF9CF08956A
:10252000615030F02091F100FC0120830196F8CF3A
:10253000289884E680938002089540917B02509110
:102540007C022091790230917A0242175307B4F449
:102550009091E8009570E1F39091E80092FD19C028
:102560008093F10080917B0290917C0201968F73A1
:102570009927892B19F48EEF8093E80080917B02D4
:1025800090917C02019690937C0280937B0281E083
:10259000089580E00895CF92DF92EF92FF920F931B
:1025A0001F93CF93DF931F92CDB7DEB7082F162F5F
:1025B000F42E862F880F8E5F99830E949D1283E0F0
:1025C0000E949D12E02EC02E9981D92E8C2D8E193D
:1025D000811798F4F601F7FE02C0849101C0808152
:1025E0000E949D12082F80E00E949D128023FFEF21
:1025F000CF1ADF0A8111EACF01C081E00F90DF918D
:10260000CF911F910F91FF90EF90DF90CF900895A1
:102610008091D70081608093D70080EA8093D800B2
:1026200089B5806189BD89B5826089BD09B400FE24
:10263000FDCF61E070E080E090E00E940F0B8091A0
:10264000D8008F7C80618093D8008091E000807FEB
:102650008093E0000895CF93DF931F92CDB7DEB74C
:102660001982CE0101960E9419170E944118BE01DD
:102670006F5F7F4F0E94BA1789810F90DF91CF91D2
:1026800008952FB7FC012083F89467706093E900E8
:102690000895CF93DF931F92CDB7DEB7682FCE0199
:1026A00001960E9441138091F20099819FBF0F9083
:1026B000DF91CF910895FF920F931F93CF93DF93F4
:1026C00000D0CDB7DEB7F62E8A0190917F02992314
:1026D00011F057FF03C08FEF9FEF2BC0682FCE0183
:1026E00001967A830E9441138091F20090E0A80144
:1026F0007A81801791070CF4AC01EF2DF72FF40EBF
:1027000084E6FE1639F02898809380029091F100BB
:102710009193F7CF4115510521F08091F200882364
:1027200021F089818FBFCA0104C08BE68093E80045
:10273000F8CF0F900F90DF91CF911F910F91FF90E5
:102740000895CF93DF931F92CDB7DEB741E050E0FD
:10275000BE016F5F7F4F0E945B13019719F489815F
:1027600090E002C08FEF9FEF0F90DF91CF9108951F
:10277000CF93DF931F92CDB7DEB7682FCE010196BE
:102780000E9441139091E800892F807295FF04C048
:102790009091F20080E4891B99819FBF0F90DF9197
:1027A000CF9108956F927F928F929F92AF92BF9236
:1027B000CF92DF92EF92FF920F931F93CF93DF930D
:1027C0001F92CDB7DEB7782E7B01C42EB52E809137
:1027D0007F02882369F0042F152F8AEFD82E872DCA
:1027E0008072982E9AE3A92E872D8074882E11C0AE
:1027F0008FEF9FEF57C0872D0E94B813682E81116D
:102800000CC0DA94A9F361E070E080E090E00E94EF
:102810000F0B0115110579F73BC0282F30E0021787
:1028200013070CF4602E672DCE0101960E94411310
:102830008091E80085FF29C0262D30E0021B130B94
:10284000992039F06A948FEF6816B1F01092F10078
:10285000F9CFF701862D77FE07C0815058F094918B
:102860009093F1003196F9CF815020F0919190939F
:10287000F100FACFE20EF31E8091E80085FF0FC051
:102880000115110511F481100AC089818FBFC1CFD4
:102890005D9884E6809381028C2D9B2D03C0A092CD
:1028A000E800F3CF0F90DF91CF911F910F91FF9030
:1028B000EF90DF90CF90BF90AF909F908F907F90E0
:1028C0006F9008951092E90010927C0210927B02A2
:1028D00090937A02809379020895CF92DF92FF92CB
:1028E0000F931F93CF93DF9300D0CDB7DEB7F82EB1
:1028F0008A016B0101151105B1F0F601F7FE02C066
:10290000849101C0808149835A830E949D120150A5
:102910001109FFEFCF1ADF0A49815A818111EACFED
:102920008FEF9FEF01C0CA010F900F90DF91CF9101
:102930001F910F91FF90DF90CF9008951F93CF9339
:10294000DF931F92CDB7DEB7162F2091E80022FF4C
:10295000FCCF612F79830E9490128BEF8093E80067
:10296000812F7981972F0F90DF91CF911F9108953B
:102970001F920F920FB60F921124DF92EF92FF92E7
:102980000F931F932F933F934F935F936F937F9377
:102990008F939F93AF93BF93EF93FF93CF93DF9367
:1029A000CDB7DEB76C97DEBFCDBF1092E900809146
:1029B000E80083FF23C168E0CE0145960E94901293
:1029C00082EF8093E8003D8937FF05C08091E800E1
:1029D00080FFFCCF03C08EEF8093E800832F8076CA
:1029E00009F0F0C02E894F89D88C21110CC03038E5
:1029F00029F480917E028093F10002C01092F100D0
:102A00001092F100F4C0842F90E09D29213049F408
:102A10003111EDC0019709F0EAC080917E028D7FEF
:102A20000AC0233059F43111E2C0019709F0DFC028
:102A300080917E02826080937E02D9C0253041F46D
:102A40008091E80080FFFCCF40684093E300CFC056
:102A5000263009F08DC0EB8CFC8C22E0D2122CC009
:102A600080E090E00E9462140E942B1399E08E0196
:102A70000F5F1F4FF801292F11922A95E9F79983CB
:102A8000DA8291E09E8390EA98879AEF9987209165
:102A90007B0230917C02275F3F4F3C832B838D83E9
:102AA000C7010E94621449E050E0B80180E00E9432
:102AB0006D140E942B139BC0C7010E9462140E94D8
:102AC0004118BE016B5E7F4F0E94E317009719F01B
:102AD0000CF08DC090C081E0D8120EC08B8D9C8D03
:102AE000089719F481E0809378028091780281112F
:102AF0002FC065E871E031C0E3E0DE127CC08F8951
:102B0000882349F1823029F440E86BE083EA91E0C0
:102B10001CC0813029F440E86BE087E991E015C0E2
:102B2000833009F068C00E9441188E010F5F1F4F6B
:102B3000B8010E940218F80101900020E9F73197CE
:102B4000E01BF10B40E06E2FC8010E94CB124DC07C
:102B500063E771E002C06FEA71E06115710509F485
:102B60004AC0FB01449150E080E80E946D143FC0D0
:102B7000273009F440C0283021F481E08093F1002F
:102B800036C02930A1F53370B1F5E9E0F1E081E01C
:102B900021E036E39081992361F08093E90020934E
:102BA000EB0091919093EC003093ED008F5F8730B4
:102BB00089F78EE78093EA001092EA008F8980936C
:102BC0007F0215C08B8D9C8D0E946214898D8111AE
:102BD00005C0CE0145960E94241707C00E944118E7
:102BE000BE016B5E7F4F0E942118882321F08EEF7B
:102BF0008093E80003C081E28093EB006C960FB6EF
:102C0000F894DEBF0FBECDBFDF91CF91FF91EF9162
:102C1000BF91AF919F918F917F916F915F914F91F4
:102C20003F912F911F910F91FF90EF90DF900F90A8
:102C30000FBE0F901F9018958093E9008091F200CD
:102C4000882319F08AE38093E80008951F920F9279
:102C50000FB60F9211242F933F934F935F936F936F
:102C60007F938F939F93AF93BF93CF93EF93FF93F4
:102C7000C091E1008091E100837F8093E100809327
:102C8000E100C3FF0FC01092E90081E08093EB00E8
:102C90001092EC0082E38093ED0010927F0288E0B6
:102CA0008093F000C2FF19C083E00E941C1680913F
:102CB0008102882339F080918102815080938102C2
:102CC000882389F180918002882339F080918002E5
:102CD000815080938002882341F1C4FF10C080910D
:102CE000E2008E7E81608093E2008091E1008F7E21
:102CF0008093E10080917D028E7E806111C0C0FFD3
:102D000016C08091E2008E7E80618093E200809107
:102D1000E1008E7E8093E10080917D028E7E816055
:102D200080937D0204C05D9ACDCF289AD6CFFF91C3
:102D3000EF91CF91BF91AF919F918F917F916F91C3
:102D40005F914F913F912F910F900FBE0F901F9069
:102D5000189510927F0210927E0210927D020E94BE
:102D60000813E1EEF0E080818E7E80838DE0809319
:102D7000E200559A209A0895CF93DF931F92CDB722
:102D8000DEB76983DC01ED91FC910280F381E02DD7
:102D900041E050E0BE016F5F7F4F09950F90DF91DA
:102DA000CF910895CF93DF93EC018C859D8597FF9C
:102DB00005C082E00E94A1139D878C878C859D852C
:102DC000DF91CF91089583E00C941C16FC0184855B
:102DD000958597FD06C082E00E94491390E0019618
:102DE000089582E00E94491390E00895FC018485D3
:102DF000958597FD05C02FEF3FEF35872487089510
:102E000082E00C94A113CF93DF93EC0180911A011F
:102E1000882331F083E00E94D2131816190634F08B
:102E200081E090E09B838A8380E090E0DF91CF9106
:102E30000895FC0120812E5F208342E450E063EB83
:102E400071E080E80C946D14FC0121818081813A4D
:102E500059F4213209F05CC047E050E063E171E0D1
:102E600080E00E946D1467C0813209F051C02332A6
:102E700089F4838190E0982F88273281832BA0E00A
:102E8000B0E080930F0190931001A0931101B093D3
:102E900012010FC0203239F467E070E083E191E065
:102EA0000E949E140AC0223221F4828180931A016A
:102EB00004C02D7F203209F03EC080911301909113
:102EC0001401A0911501B0911601803B9440A10519
:102ED000B10501F580911A0180FD1CC080910008A8
:102EE000909101089093FF0A8093FE0A87E797E785
:102EF00090930108809300082BE088E190E00FB6E2
:102F0000F894A895809360000FBE2093600013C0D2
:102F100080E0089588E10FB6F894809360001092E5
:102F200060000FBEA8958091FE0A9091FF0A9093D1
:102F300001088093000881E00895109285021092A4
:102F4000840288EE93E0A0E0B0E080938602909344
:102F50008702A0938802B09389028AE891E0909357
:102F60008302809382028FEF9FEF90938F02809372
:102F70008E020895EF92FF920F931F93CF93DF93EA
:102F80007B01FC01C281D38100E010E0209781F039
:102F9000E881F9810280F381E02DB701CE01099526
:102FA00097FD08C0080F191F0884D985C02DEECFE2
:102FB000C80102C08FEF9FEFDF91CF911F910F915A
:102FC000FF90EF9008950F931F93CF93DF938B01A2
:102FD000FC01C281D381209771F0E881F9810480DE
:102FE000F581E02DB801CE010995009731F40884F0
:102FF000D985C02DF0CF80E090E0DF91CF911F9177
:103000000F9108950F931F93CF93DF938B01FC01D2
:10301000C281D381209771F0E881F9810680F78120
:10302000E02DB801CE010995080F111D0884D9853E
:10303000C02DF0CFF8011082DF91CF911F910F9139
:1030400008950F931F93CF93DF938B01FC01C281EF
:10305000D381209771F0E881F9810190F081E02D12
:10306000B801CE010995811106C00884D985C02D0B
:10307000F0CF80E001C081E0DF91CF911F910F91EF
:1030800008958091D60281110DC082E08093D20212
:1030900084E08093D3021092D5021092D40281E092
:1030A0008093D60282ED92E008955058BB27AA275C
:1030B0000ED075C166D130F06BD120F031F49F3F56
:1030C00011F41EF45BC10EF4E095E7FB51C1E92F4A
:1030D00077D180F3BA17620773078407950718F052
:1030E00071F49EF58FC10EF4E0950B2EBA2FA02D32
:1030F0000B01B90190010C01CA01A0011124FF27A5
:10310000591B99F0593F50F4503E68F11A16F0409F
:10311000A22F232F342F4427585FF3CF469537959E
:103120002795A795F0405395C9F77EF41F16BA0B63
:10313000620B730B840BBAF09150A1F0FF0FBB1F11
:10314000661F771F881FC2F70EC0BA0F621F731F5A
:10315000841F48F4879577956795B795F7959E3FB7
:1031600008F0B3CF9395880F08F09927EE0F979545
:1031700087950895D9D008F481E008950CD00FC147
:1031800007D140F0FED030F021F45F3F19F0F0C0DD
:10319000511139C1F3C014D198F39923C9F35523C0
:1031A000B1F3951B550BBB27AA276217730784073A
:1031B00038F09F5F5F4F220F331F441FAA1FA9F3F0
:1031C00033D00E2E3AF0E0E830D091505040E695E2
:1031D000001CCAF729D0FE2F27D0660F771F881F43
:1031E000BB1F261737074807AB07B0E809F0BB0B32
:1031F000802DBF01FF2793585F4F2AF09E3F510556
:1032000068F0B6C000C15F3FECF3983EDCF38695F2
:1032100077956795B795F7959F5FC9F7880F911DCB
:103220009695879597F90895E1E0660F771F881FB7
:10323000BB1F621773078407BA0720F0621B730B6A
:10324000840BBA0BEE1F88F7E095089504D06894BC
:10325000B111D9C00895BCD088F09F5790F0B92F14
:103260009927B751A0F0D1F0660F771F881F991FDB
:103270001AF0BA95C9F712C0B13081F0C3D0B1E0ED
:103280000895C0C0672F782F8827B85F39F0B93FFD
:10329000CCF3869577956795B395D9F73EF49095DD
:1032A0008095709561957F4F8F4F9F4F0895E8945B
:1032B00009C097FB3EF490958095709561957F4F7E
:1032C0008F4F9F4F9923A9F0F92F96E9BB2793952C
:1032D000F695879577956795B795F111F8CFFAF43C
:1032E000BB0F11F460FF1BC06F5F7F4F8F4F9F4F6D
:1032F00016C0882311F096E911C0772321F09EE8CB
:10330000872F762F05C0662371F096E8862F70E030
:1033100060E02AF09A95660F771F881FDAF7880F0A
:103320009695879597F90895990F0008550FAA0B60
:10333000E0E8FEEF16161706E807F907C0F01216C8
:103340001306E407F50798F0621B730B840B950BCB
:1033500039F40A2661F0232B242B252B21F4089520
:103360000A2609F4A140A6958FEF811D811D0895BD
:1033700097F99F6780E870E060E008959FEF80EC28
:10338000089500240A9416161706180609060895CB
:1033900000240A9412161306140605060895092E31
:1033A0000394000C11F4882352F0BB0F40F4BF2BA0
:1033B00011F460FF04C06F5F7F4F8F4F9F4F0895E0
:1033C00057FD9058440F551F59F05F3F71F04795D6
:1033D000880F97FB991F61F09F3F79F087950895BB
:1033E000121613061406551FF2CF4695F1DF08C0DA
:1033F000161617061806991FF1CF869571056105F7
:1034000008940895E894BB2766277727CB0197F99E
:1034100008958ADF08F48FEF08950BD0C0CFB1DF95
:1034200028F0B6DF18F0952309F0A2CFA7CF11241A
:10343000EACFC6DFA0F3959FD1F3950F50E0551F5B
:10344000629FF001729FBB27F00DB11D639FAA27F9
:10345000F00DB11DAA1F649F6627B00DA11D661F48
:10346000829F2227B00DA11D621F739FB00DA11D69
:10347000621F839FA00D611D221F749F3327A00D23
:10348000611D231F849F600D211D822F762F6A2FBF
:1034900011249F5750408AF0E1F088234AF0EE0F44
:1034A000FF1FBB1F661F771F881F91505040A9F751
:1034B0009E3F510570F05CCFA6CF5F3FECF3983E86
:1034C000DCF3869577956795B795F795E7959F5FB8
:1034D000C1F7FE2B880F911D9695879597F9089552
:1034E00023DF880B990B0895A1E21A2EAA1BBB1BA0
:1034F000FD010DC0AA1FBB1FEE1FFF1FA217B307C0
:10350000E407F50720F0A21BB30BE40BF50B661FD5
:10351000771F881F991F1A9469F760957095809599
:1035200090959B01AC01BD01CF010895EE0FFF1FE7
:103530000590F491E02D0994CF93DF9382309105AB
:1035400010F482E090E0E091E002F091E10220E0EE
:1035500030E0A0E0B0E0309739F140815181481768
:103560005907B8F04817590771F482819381109771
:1035700029F013969C938E9312972CC09093E1029E
:103580008093E00227C02115310531F0421753071F
:1035900018F0A901DB0101C0EF019A01BD01DF01B3
:1035A0000280F381E02DD7CF21153105F9F0281BDA
:1035B000390B2430310580F48A819B8161157105B6
:1035C00021F0FB019383828304C09093E1028093F6
:1035D000E002FE01329644C0FE01E20FF31F819328
:1035E000919322503109398328833AC02091DE0219
:1035F0003091DF02232B41F420910201309103012D
:103600003093DF022093DE0220910001309101010E
:103610002115310541F42DB73EB740910401509179
:103620000501241B350BE091DE02F091DF02E21769
:10363000F307A0F42E1B3F0B2817390778F0AC01D5
:103640004E5F5F4F2417350748F04E0F5F1F5093B2
:10365000DF024093DE028193919302C0E0E0F0E04C
:10366000CF01DF91CF910895CF93DF93009709F4B5
:1036700087C0FC01329713821282C091E002D09180
:10368000E102209781F420813181280F391F809138
:10369000DE029091DF028217930779F5F093DF0243
:1036A000E093DE026DC0DE0120E030E0AE17BF0720
:1036B00050F412964D915C9113979D01411551055F
:1036C00009F1DA01F3CFB383A28340815181840FE2
:1036D000951F8A179B0771F48D919C911197840F08
:1036E000951F02969183808312968D919C911397DA
:1036F000938382832115310529F4F093E102E0934D
:10370000E0023EC0D9011396FC93EE9312974D91BF
:103710005D91A40FB51FEA17FB0779F480819181B1
:10372000840F951F0296D90111969C938E938281E6
:10373000938113969C938E931297E0E0F0E08A8138
:103740009B81009719F0FE01EC01F9CFCE010296A2
:1037500028813981820F931F2091DE023091DF0290
:103760002817390769F4309729F41092E102109272
:10377000E00202C013821282D093DF02C093DE0205
:10378000DF91CF910895A0E0B0E0E9ECFBE10C946B
:10379000EF1CEC01CB01209719F40E949C1AB8C0D1
:1037A000FE01E60FF71F9E0122503109E217F307D1
:1037B00008F4ACC0D9010D911C9111970617170799
:1037C000B8F00530110508F49FC0A8014450510914
:1037D0004617570708F498C002501109061B170B2B
:1037E000019311936D937C93CF010E94341B8CC085
:1037F0005B01A01AB10A4E01800E911EA091E00259
:10380000B091E102612C712C60E070E0109709F436
:1038100049C0A815B905C9F5ED90FC90119767014D
:1038200042E0C40ED11CCA14DB0478F147018A18A7
:103830009B08640142E0C40ED11C1296BC90129702
:103840001396AC91B5E0CB16D10440F0B282A383BD
:1038500091828082D9018D939C9309C00E5F1F4F86
:103860000E0D1F1DF90111830083EB2DFA2F611539
:10387000710531F0DB011396FC93EE93129744C06F
:10388000F093E102E093E0023FC06D917C911197CB
:103890006616770608F43B01BD0112960D90BC91A7
:1038A000A02DB4CF6091DE027091DF02681579051A
:1038B000E9F468167906D0F44091000150910101B5
:1038C0004115510541F44DB75EB760910401709107
:1038D0000501461B570BE417F507C0F4F093DF0210
:1038E000E093DE02F901918380830EC00E949C1A4E
:1038F0007C01009759F0A801BE010E949D1CCE01D9
:103900000E94341BC70104C0CE0102C080E090E0D9
:10391000CDB7DEB7EEE00C940B1DFB01DC0105908A
:103920000D920020E1F70895FC0105900020E9F7D1
:10393000809590958E0F9F1F0895FB01DC0102C0BA
:1039400001900D9241505040D8F70895FB01DC01E1
:103950008D91019080190110D9F3990B0895FB0105
:10396000DC0101900D920020E1F70895BB274A3059
:1039700031F4992322F4BDE2909581959F4F0C94E8
:10398000C21CBB27FB015527AA27880F991FAA1F16
:10399000A41710F0A41B83955051B9F7A05DAA336A
:1039A00008F0A95DA193009779F7B111B193119235
:1039B000CB010C94DB1CDC01FC01672F7191772398
:1039C000E1F7329704C07C916D9370836291AE17DA
:1039D000BF07C8F308952F923F924F925F926F9264
:1039E0007F928F929F92AF92BF92CF92DF92EF928F
:1039F000FF920F931F93CF93DF93CDB7DEB7CA1B10
:103A0000DB0B0FB6F894DEBF0FBECDBF09942A883A
:103A1000398848885F846E847D848C849B84AA84E2
:103A2000B984C884DF80EE80FD800C811B81AA816F
:103A3000B981CE0FD11D0FB6F894DEBF0FBECDBF3A
:103A4000ED01089512E0C4E0D2E004C0FE010E943E
:0E3A5000981A2296C630D107C9F7F894FFCF16
:103A5E000000E2028000020000C18081000000FF31
:103A6E00FFFFFF00E10000000000005858585858B2
:103A7E00585831303074656D70657261747572614D
:103A8E000068756D6564616400000000001707BB77
:103A9E0005A807B207FE07540555058806CA071E76
:103AAE00064A065105000000008208AC0E1C0800F4
:103ABE00000000EB0CAC0E6D0C860C780CC90C00E3
:103ACE00000000570E0D0A006E616E00696E6600F2
:103ADE006F7666002E0000000000BC160317E61677
:063AEE00F616D216E316E5
:00000001FF
